:020000040000fa
:080000000002040000000000f2
:020000040000fa
:0400080002030000ef
:020000040000fa
:04000c0044030000a9
:020000040000fa
:04001000a403000045
:020000040000fa
:0400140022030000c3
:020000040000fa
:04001800640300007d
:020000040000fa
:04001c008403000059
:020000040000fa
:04002000c403000015
:020000040000fa
:040024005c04000078
:020000040000fa
:040028005c04000074
:020000040000fa
:04002c005c04000070
:020000040000fa
:040030005c0400006c
:020000040000fa
:040034005c04000068
:020000040000fa
:040038005c04000064
:020000040000fa
:04003c005c04000060
:020000040000fa
:040040005c0400005c
:020000040000fa
:04004400f0030000c5
:020000040000fa
:04004800260400008a
:020000040000fa
:04004c005c04000050
:020000040000fa
:040050005c0400004c
:020000040000fa
:040054005c04000048
:020000040000fa
:040058005c04000044
:020000040000fa
:04005c005c04000040
:020000040000fa
:040060005c0400003c
:020000040000fa
:040064005c04000038
:020000040000fa
:040068005c04000034
:020000040000fa
:04006c005c04000030
:020000040000fa
:040070005c0400002c
:020000040000fa
:040074005c04000028
:020000040000fa
:040078005c04000024
:020000040000fa
:04007c005c04000020
:020000040000fa
:040080005c0400001c
:020000040000fa
:040084005c04000018
:020000040000fa
:040088005c04000014
:020000040000fa
:04008c005c04000010
:020000040000fa
:040090005c0400000c
:020000040000fa
:040094005c04000008
:020000040000fa
:040098005c04000004
:020000040000fa
:04009c005c04000000
:020000040000fa
:0400a0005c040000fc
:020000040000fa
:0400a4005c040000f8
:020000040000fa
:0400a8005c040000f4
:020000040000fa
:0400ac005c040000f0
:020000040000fa
:0400b0005c040000ec
:020000040000fa
:0400b4005c040000e8
:020000040000fa
:0400b8005c040000e4
:020000040000fa
:0400bc005c040000e0
:020000040000fa
:0400c0005c040000dc
:020000040000fa
:0400c4005c040000d8
:020000040000fa
:0400c8005c040000d4
:020000040000fa
:0400cc005c040000d0
:020000040000fa
:0400d0005c040000cc
:020000040000fa
:0400d4005c040000c8
:020000040000fa
:0400d8005c040000c4
:020000040000fa
:0400dc005c040000c0
:020000040000fa
:0400e0005c040000bc
:020000040000fa
:0400e4005c040000b8
:020000040000fa
:0400e8005c040000b4
:020000040000fa
:0400ec005c040000b0
:020000040000fa
:0400f0005c040000ac
:020000040000fa
:0400f4005c040000a8
:020000040000fa
:0400f8005c040000a4
:020000040000fa
:0400fc005c040000a0
:020000040000fa
:040100005c0400009b
:020000040000fa
:040104005c04000097
:020000040000fa
:040108005c04000093
:020000040000fa
:04010c005c0400008f
:020000040000fa
:040110005c0400008b
:020000040000fa
:040114005c04000087
:020000040000fa
:040118005c04000083
:020000040000fa
:04011c005c0400007f
:020000040000fa
:040120005c0400007b
:020000040000fa
:040124005c04000077
:020000040000fa
:040128005c04000073
:020000040000fa
:04012c005c0400006f
:020000040000fa
:040130005c0400006b
:020000040000fa
:040134005c04000067
:020000040000fa
:040138005c04000063
:020000040000fa
:04013c005c0400005f
:020000040000fa
:040140005c0400005b
:020000040000fa
:040144005c04000057
:020000040000fa
:040148005c04000053
:020000040000fa
:04014c005c0400004f
:020000040000fa
:040150005c0400004b
:020000040000fa
:040154005c04000047
:020000040000fa
:040158005c04000043
:020000040000fa
:04015c005c0400003f
:020000040000fa
:040160005c0400003b
:020000040000fa
:040164005c04000037
:020000040000fa
:040168005c04000033
:020000040000fa
:04016c005c0400002f
:020000040000fa
:040170005c0400002b
:020000040000fa
:040174005c04000027
:020000040000fa
:040178005c04000023
:020000040000fa
:04017c005c0400001f
:020000040000fa
:040180005c0400001b
:020000040000fa
:040184005c04000017
:020000040000fa
:040188005c04000013
:020000040000fa
:04018c005c0400000f
:020000040000fa
:040190005c0400000b
:020000040000fa
:040194005c04000007
:020000040000fa
:040198005c04000003
:020000040000fa
:04019c005c040000ff
:020000040000fa
:0401a0005c040000fb
:020000040000fa
:0401a4005c040000f7
:020000040000fa
:0401a8005c040000f3
:020000040000fa
:0401ac005c040000ef
:020000040000fa
:0401b0005c040000eb
:020000040000fa
:0401b4005c040000e7
:020000040000fa
:0401b8005c040000e3
:020000040000fa
:0401bc005c040000df
:020000040000fa
:0401c0005c040000db
:020000040000fa
:0401c4005c040000d7
:020000040000fa
:0401c8005c040000d3
:020000040000fa
:0401cc005c040000cf
:020000040000fa
:0401d0005c040000cb
:020000040000fa
:0401d4005c040000c7
:020000040000fa
:0401d8005c040000c3
:020000040000fa
:0401dc005c040000bf
:020000040000fa
:0401e0005c040000bb
:020000040000fa
:0401e4005c040000b7
:020000040000fa
:0401e8005c040000b3
:020000040000fa
:0401ec005c040000af
:020000040000fa
:0401f0005c040000ab
:020000040000fa
:0401f4005c040000a7
:020000040000fa
:0401f8005c040000a3
:020000040000fa
:0401fc005c0400009f
:020000040000fa
:040200005c0400009a
:020000040000fa
:040204005c04000096
:020000040000fa
:040208005c04000092
:020000040000fa
:04020c005c0400008e
:020000040000fa
:040210005c0400008a
:020000040000fa
:040214005c04000086
:020000040000fa
:040218005c04000082
:020000040000fa
:04021c005c0400007e
:020000040000fa
:040220005c0400007a
:020000040000fa
:040224005c04000076
:020000040000fa
:040228005c04000072
:020000040000fa
:04022c005c0400006e
:020000040000fa
:040230005c0400006a
:020000040000fa
:040234005c04000066
:020000040000fa
:040238005c04000062
:020000040000fa
:04023c005c0400005e
:020000040000fa
:040240005c0400005a
:020000040000fa
:040244005c04000056
:020000040000fa
:040248005c04000052
:020000040000fa
:04024c005c0400004e
:020000040000fa
:040250005c0400004a
:020000040000fa
:040254005c04000046
:020000040000fa
:040258005c04000042
:020000040000fa
:04025c005c0400003e
:020000040000fa
:040260005c0400003a
:020000040000fa
:040264005c04000036
:020000040000fa
:040268005c04000032
:020000040000fa
:04026c005c0400002e
:020000040000fa
:040270005c0400002a
:020000040000fa
:040274005c04000026
:020000040000fa
:040278005c04000022
:020000040000fa
:04027c005c0400001e
:020000040000fa
:040280005c0400001a
:020000040000fa
:10040000af0221000eff24000e0188000000000052
:10041000000020000000e000020032000001200087
:100420002002880014000700250107000000e000fa
:1004300003003a0040ad2000010020000200370018
:100440000000200001002000810f70000100320038
:100450000f000700000020000000e0000200320052
:10046000000002000000000056080200000000002a
:100470000040da000000fe00200020000000e00044
:1004800002003200100020009001880000000600e9
:10049000a1028800800478000000eb001f003700f4
:1004a000e284440054a0b4009905ba00e2844400f8
:1004b00054a0b4009906ba00e284440054a0b400e9
:1004c0000006eb00476fde00fd07b200ae018800ba
:1004d000636ce10003003a000ad801000000eb0061
:1004e0000e003700606ce10008003a00004deb00a0
:1004f0000a05e800020039003420ec000af0a000f0
:100500008b05e900f9ff3e00040037006168e10057
:10051000010032000086eb000b00070019c7ba008b
:100520000e04e0001905ba0003003a000a00e000da
:10053000dbff3a0000000600fe07b200ae028800b2
:100540008a047800f5ff37000cd0a300e20f4d00bd
:100550001c00390089027800354dba000a05e80010
:10056000020039003420ec000af0a0008b05e900fd
:100570000f003200254dba000a05e80002003900dc
:100580003420ec000af0a0008b05e90008003200de
:100590000c00e0000600320015cdba000a05e800a4
:1005a000020039003420ec000af0a0008b05e900bd
:1005b0008984e80054a0b4000b00e000e2ff3a0098
:1005c000000006009902ba00055d78008b05e9007d
:1005d000f7ff3200c82ade00055d78008b05e900d0
:1005e000f3ff32000c00e000f1ff320019ddba0029
:1005f000eeff37002c070400000000006e09040025
:10060000000000003600f800809fbe00829fbe0000
:10061000849fbe00869fbe000000fa00c028a9008b
:100620000000eb00010407000080fa004f03be0049
:100630004f02be004f01be004f00be003600f90061
:10064000004006003600f800809fbe00829fbe007a
:10065000849fbe00869fbe000000fa00f8030700da
:10066000c048a90010002000f00307000080fa0035
:100670004f03be004f02be004f01be004f00be0040
:100680003600f900004006003600f800809fbe00ea
:10069000829fbe00849fbe00869fbe000000fa00bd
:1006a000c068a90020002000e00307000080fa00d5
:1006b0004f03be004f02be004f01be004f00be0000
:1006c0003600f900004006003600f800809fbe00aa
:1006d000829fbe00849fbe00869fbe000000fa007d
:1006e000c088a90030002000d00307000080fa0075
:1006f0004f03be004f02be004f01be004f00be00c0
:100700003600f900004006003600f800809fbe0069
:10071000829fbe00849fbe00869fbe000000fa003c
:10072000c0a8a90040002000c00307000080fa0014
:100730004f03be004f02be004f01be004f00be007f
:100740003600f900004006003600f800809fbe0029
:10075000829fbe00849fbe00869fbe000000fa00fc
:10076000c608a90070002000b00307000080fa004e
:100770004f03be004f02be004f01be004f00be003f
:100780003600f900004006003600f800809fbe00e9
:10079000829fbe00849fbe00869fbe000000fa00bc
:1007a0002146800000022000008060000000e00080
:1007b00003003200c4a8a900900020009b0307009a
:1007c00020468000700060000000e000030032005e
:1007d000c488a900a000200094030700ffff370091
:1007e0003600f800809fbe00829fbe00849fbe003e
:1007f000869fbe000000fa00108080000000e0002c
:100800000200320010808000000001007002210010
:10081000104078008040e800700221000148780014
:100820006002210011c0b3000148780000e8a9006f
:100830000080fa004f03be004f02be004f01be0011
:100840004f00be003600f900004006003600f800f8
:10085000809fbe00829fbe00849fbe00869fbe0018
:100860000000fa00208080000000e000020032005a
:1008700020808000000001009002210010407800dc
:100880008040e800900221000148780080022100a9
:1008900011c0b300014878000108a9000080fa00e7
:1008a0004f03be004f02be004f01be004f00be000e
:1008b0003600f900004006000040da000000fe00ab
:0408c000000005002f
:020000040000fa
:1008c4000000fa000012200010128800100020001e
:1008d40020128800c0002800001288000080fa005e
:1008e400000006000400fa00000f780011079800c9
:1008f4000000000000128000620060000000e000c0
:10090400fcff3a001e007800104078000080fb00d5
:100914004012880000000000011280000002200044
:10092400008060000000e000fbff3a0040128000fd
:10093400804078001e009000014878000080fa0092
:10094400000006001800fa00100f9800210f98000c
:10095400320f98000000eb00000f78000000eb005d
:10096400100798000000eb00700798000000eb00ef
:10097400000f980010002000600798001e089000e7
:100984000000e00005003a000000eb00500798006a
:10099400700047002007980004003700ee00900024
:1009a400510798009e089000210798003e08900087
:1009b4000000e00005003a000000eb00400798004a
:1009c4006e0047003007980005003700ee009000e5
:1009d40041079800be08900031079800000000000d
:1009e40000128000620060000000e000fcff3a009a
:1009f4001d00370000128000620060000000e0006b
:100a040009003a002e009000104078000080fb009e
:100a140040128800ae0090005e009000008040000c
:100a2400200798001e0fe800011280000002200039
:100a3400008060000000e0000b003a0040128000db
:100a4400804078003e00900001487800be0090008d
:100a54004e00900000804000300798001e00900077
:100a64000000e800100798002e0890009e0078000f
:100a7400808f5000dfff3900100037000112800022
:100a840000022000008060000000e0000b003a003b
:100a940040128000804078003e00900001487800b9
:100aa400be0090004e009000008040003007980087
:100ab4001e0090000000e800100798009e009000bf
:100ac4002e089000808f5000ecff39001e00780043
:100ad4000080fa00000006000400fa002047980095
:100ae4000e80e8008e0078007eff07001e4078002c
:100af4000080fa00000006000600fa00000f7800eb
:100b040011079800220798002e0190009e00900083
:100b14001e0078008bff07000080fa00000006002a
:100b24000000fa00111280000040200000806000e4
:100b34000000e00002003a000000eb000100370072
:100b4400100020000080fa00000006000000fa00f7
:100b5400001280000080fa00000006000000fa0085
:100b6400003a80000080fa00000006000200fa004b
:100b7400faff0700000f78001e0078002400070029
:100b84000004e000020032000000280071000700a9
:100b94001e0078002a0007000004e0000200320072
:100ba400000024006b0007001e00780032000700dc
:100bb4000004e0000200320000202000650007006d
:100bc4001e0078003a0007000004e0000200320032
:100bd400000820005f0007001e00780042000700a4
:100be4000004e00002003200000420005900070065
:100bf4001e0078004a0007000004e00002003200f2
:100c040000012000530007000080fa0000000600e5
:100c14000400fa00100798000040eb00004f780031
:100c24001e0090000000e00002003d0010c0b30070
:100c3400004f78001e4078000080fa000000060093
:100c44000400fa00100798000040eb00004f780001
:100c54009e00900000002400008060000000e0007e
:100c64000200320010c0b300004f78001e4078002c
:100c74000080fa00000006000400fa001007980043
:100c84000040eb00004f78009e0090000020200000
:100c9400008060000000e0000200320010c0b300d9
:100ca400004f78001e4078000080fa000000060023
:100cb4000400fa00100798000040eb00004f780091
:100cc4009e00900000082000008060000000e0000a
:100cd4000200320010c0b300004f78001e407800bc
:100ce4000080fa00000006000400fa0010079800d3
:100cf4000040eb00004f78009e00900000042000ac
:100d0400008060000000e0000200320010c0b30068
:100d1400004f78001e4078000080fa0000000600b2
:100d24000400fa00100798000040eb00004f780020
:100d34001e009000700060000000e000020032001d
:100d440010c0b300004f78001e4078000080fa0005
:100d5400000006000200fa00000f78009e80ea00fe
:100d6400003a800000806000003a88000080fa00a9
:100d7400000006000000fa004027ef000080fa009f
:100d8400000006000000fa000621ef00d024200035
:100d940060088800200028008008880010808000f7
:100da4000000e00002003a00c07220003100070099
:100db40000e8a90020e8a800600221008040eb00c0
:100dc400014878000080fa00000006000200fa00e2
:100dd400000f78009e0078006108880060022100fe
:100de4008040eb00014878000080fa000000060013
:100df4000000fa00600880000080fa00000006008d
:100e04000200fa00000f78009e0078003108880084
:100e1400600221008040eb00014878000080fa0065
:100e2400000006000000fa00300880000080fa008c
:100e3400000006000000fa0031088000f01d2000c8
:100e4400808f500001003600252ea9000080fa0092
:100e5400000006000000fa005108800030eb240076
:100e6400808f500001003e00252ea8000080fa006b
:100e7400000006000200fa00000f780020e8a90034
:100e84009e0078001180880020e8a8000080fa0005
:100e9400000006000000fa00600221008040eb0020
:100ea4000148780020e8a80011e1a8000080fa00b9
:100eb400000006000000fa0011e1a90020e8a900e2
:100ec4000080fa00000006000200fa00600221001f
:100ed400104f78001e4078000004e0000300320048
:100ee400600221008040eb00014878001e40780039
:100ef4000080fa00000006000000fa0070022100e1
:100f0400104078000080fb000080fa00000006001a
:100f14000000fa00700221008040eb0001487800d4
:100f24000080fa00000006000600fa00100798008e
:100f3400414798000040eb00004f7800060037005e
:100f44001e80fb009e00900000804000104078004e
:100f5400720007001e4fe8004e4090009e4078004b
:100f640080cf5000f6ff39000080fa000000060030
:100f74000400fa0020479800142ea90020c0b300f2
:100f8400004f78000001eb00110020000e007800f3
:100f9400d9fe07000040eb00104798000e00e8005f
:100fa4000001eb0011002000d3fe07000e00e80052
:100fb4000001eb0011002000cffe07000e00e80046
:100fc4000001eb0011002000cbfe07000e80e800ba
:100fd4000001eb0011002000c7fe0700142ea8003a
:100fe4000080fa00000006000400fa002047980080
:100ff400142ea90030c0b300004f78000001eb00ac
:10100400110020000e007800bbfe07000040eb003a
:10101400104798000e00e8000001eb0011002000ca
:10102400b5fe07000e00e8000001eb0011002000ef
:10103400b1fe07000e00e8000001eb0011002000e3
:10104400adfe07000e80e8000001780011002000ca
:101054000000eb00a8fe0700142ea8000080fa0090
:10106400000006000200fa00004f78009e80fb009a
:10107400800f2000008060000000400080007800a5
:101084002271800080e02f00000061008080400019
:101094001e80fb0067006000008040002071880013
:1010a4000080fa00000006000000fa00300107008a
:1010b40060ff0700feff37000000fa0080002000f8
:1010c400001188002222ef00f04420004011880023
:1010d40021e2a8002342a8000080fa0000000600d4
:1010e4000000fa00000000001011800061006000a0
:1010f4000000e000fcff320010118000620060007c
:101104000000e000010032002222a900301180001a
:10111400004078000080fa00000006000200fa0097
:10112400004f780000000000111180000020200012
:10113400008060000000e000fbff3a001e80fb001e
:10114400201188000080fa00000006000000fa0068
:101154001011800000407800614060000080fb00b6
:1011640000f0a7000000ea000000ea004f00de00e3
:10117400004078000080fa00000006000000fa0039
:101184001111800000202000008060000000e000b9
:1011940007003a0011118000004020000080600028
:1011a4000000e000020032001000200001003700bf
:1011b4000000eb00004078000080fa000000060008
:1011c4000000fa00101180004800de006140600059
:1011d4000080fb0000f0a7000000ea000000ea0025
:1011e4004f00de00004078000080fa000000060096
:1011f4000000fa00101180000080fa0000000600d0
:101204000000fa0021e2a8002342a8000080fa00ae
:10121400000006000000fa0021e2a9002342a90010
:101224000080fa00000006000000fa000a21ef0026
:1012340020f8240070088800200128009008880005
:10124400208080000000e00002003a00e0962000c8
:10125400240007000108a9002108a8008002210039
:101264008040eb00014878000080fa00000006008e
:101274000200fa00000f78009e00780071088800d0
:10128400800221008040eb00014878000080fa00d1
:10129400000006000000fa00700880000080fa00d8
:1012a400000006000200fa00000f78009e0078009b
:1012b40051088800800221008040eb00014878003a
:1012c4000080fa00000006000000fa0050088000c8
:1012d4000080fa00000006000000fa000080fa0016
:1012e400000006000200fa00000f78002108a9009f
:1012f4009e007800218088002108a8000080fa0060
:10130400000006000000fa00800221008040eb008b
:10131400014878002108a80013e1a8000080fa0021
:10132400000006000000fa0013e1a9002108a9004a
:101334000080fa00000006000200fa00800221008a
:10134400104f78001e4078000004e00003003200d3
:10135400800221008040eb00014878001e407800a4
:101364000080fa00000006000000fa00900221004c
:10137400104078000080fb000080fa0000000600a6
:101384000000fa00900221008040eb000148780040
:101394000080fa00000006000000fa00042eef00ae
:1013a40000022000a0708800242eef007079200035
:1013b40000708800c0fd2f0080708800202eef0090
:1013c4000c2eef001c2eef002c2eef000a2eef0047
:1013d4001a2eef002a2eef00062eef00162eef0035
:1013e400262eef0070012000707088000038200065
:1013f400f07088002e2eef00113a8000f00b2000d0
:101404000081600060042000710520002374200026
:10141400804978008149780082497800213680002b
:1014240000f82f008080600060022000010070003e
:101434002036880011348000f00f2c00808060007a
:101444000010230001007000103488003135800042
:1014540000f82f0080806000f0022000010070007e
:1014640030358800103a8000000178000260a00046
:101474006004200071052000237420008049780056
:1014840081497800824978000080fa000000060053
:101494000000fa0000042300203a88004827ef00e7
:1014a40000302800703a8800a0052000303a8800f7
:1014b4006027ef006227ef006427ef006627ef0044
:1014c4006a27ef006c27ef0012002000800720003d
:1014d400a1092000337420008049780081497800f4
:1014e4008249780012002000600420007105200069
:1014f400237420008049780081497800824978006b
:1015040000000000103a8000610060000000e0006c
:10151400fcff3a0000000000113a800000022000a5
:10152400008060000000e000fbff32000080fa0051
:10153400000006000200fa00000f7800210280007b
:10154400200f2000008060001e0070002002880030
:101554000080fa00000006000000fa00c3e8a800ba
:1015640000000000000000000080fa0000000600f7
:101574000000fa0088ff07001e000700c4ff0700f0
:10158400cffc0700ccfe070027ff0700fdfd070086
:10159400f1ff070000022000e6ff07000080fa00c8
:0415a400000006003d
:020000040000fa
:1015a800061000002000000080000000001000006d
:1015b8000200000082000000ffff0000261000006b
:1015c800020000008000000002100000020000007d
:1015d80080000000281000000200000080000000c9
:1015e800041000000200000080000000000000005d
:020000040000fa
:1015f8000000fa002142800080ff2f000080600078
:101608000000a0002042880011428000f0ff28005e
:101618000080600000c0a000104288000080fa002e
:10162800000006000200fa00000f78009e00780013
:1016380001808800ffff37000000fa0060002100e9
:1016480080077800e0012100000188000080fa008e
:041658000000060088
:020000040000fa
:020000040002f8
:04abe000cfff0000a3
:020000040000fa
:020000040002f8
:04abe400ffff00006f
:020000040000fa
:020000040002f8
:04abe8007fff0000eb
:020000040000fa
:020000040002f8
:04abec007bff0000eb
:020000040000fa
:020000040002f8
:04abf00078ff0000ea
:020000040000fa
:020000040002f8
:04abf400ffff00005f
:00000001FF
